:100000000C9472000C9493060C94BC060C94E506B8
:100010000C948F000C948F000C948F000C94CC07E0
:100020000C948F000C948F000C948F000C94360766
:100030000C948F000C948F000C948F000C948F0004
:100040000C94F3020C948F000C948F000C948F008E
:100050000C948F00520357035C03610366036B0328
:100060007003750386038B03900395039A039F0324
:10007000A403A903BA03BF03C403C903CE03D30374
:10008000D803DD03EE03F303F803FD0302040704C2
:100090000C041104300435043A043F0444044904B8
:1000A0004E045304640469046E04730478047D04EC
:1000B0008204870498049D04A204A704AC04B1043C
:1000C000B604BB04CC04D104D604DB04E004E5048C
:1000D000EA04EF041C053F0566059105BC05E30530
:1000E0000E06390611241FBECFE5D8E0DEBFCDBF16
:1000F00010E0A0E6B0E0E4EDF6E102C005900D925C
:10010000AA3CB107D9F721E0AAECB0E001C01D92EA
:10011000AB30B207E1F70E9493020C94680B0C9489
:10012000000041E069E088E00E94320340E06AE0BC
:1001300088E00E943203089540E069E088E00E9470
:10014000320341E06AE088E00E943203089540E013
:1001500069E088E00E94320340E06AE088E00E94A3
:10016000320308959F92AF92BF92CF92DF92EF92A7
:10017000FF920F931F93CF93DF931F92CDB7DEB7FC
:100180001982009709F04AC080E056C0C02ED12CD9
:10019000F601EC59FF4F40E0608186E00E94320397
:1001A00010E02DC0E12EF12CF701E05AFF4FAE0117
:1001B0004F5F5F4F608186E00E940A05998191112F
:1001C0001DC0F601EE0FFF1FEE0FFF1FE859FF4F96
:1001D000EE0DFF1D8081F50180830AC0AE014F5FE7
:1001E0005F4FF701E05AFF4F608186E00E940A05E9
:1001F0008981882399F39924939403C01F5F143055
:1002000088F2F601EC59FF4F41E0608186E00E94E0
:100210003203F1E09F1641F00F5F03C05C01912CA7
:1002200000E0043008F4B2CF911005C08FEFF50163
:10023000808381E001C081E00F90DF91CF911F9119
:100240000F91FF90EF90DF90CF90BF90AF909F9075
:100250000895CF93C82F40E06EE085E00E943203FE
:1002600040E06FE085E00E9432036C2F87E00E943F
:100270007A0641E060E185E00E943203000040E040
:1002800060E185E00E943203CF9108958DE292E211
:100290000197F1F700C0000088E30E94290190E176
:1002A0009A95F1F700C08CE00E94290180E18A95BF
:1002B000F1F700C081E00E94290183EF91E00197EE
:1002C000F1F700C0000086E00E9429010895CF9355
:1002D000C82F41E06EE085E00E94320340E06FE00D
:1002E00085E00E9432036C2F87E00E947A0641E08D
:1002F00060E185E00E943203000040E060E185E0BB
:100300000E943203CF9108950F931F93CF930097CC
:1003100031F480E00DC00E946701CF5F02C08C0104
:10032000C0E0F801EC0FF11D80818111F4CF81E074
:10033000CF911F910F910895683288F4882319F0A6
:10034000813039F00EC080E8860F0E94290181E0DB
:10035000089580EC860F0E94290181E0089580E0D5
:10036000089580E0089581E00E94290183EF91E0E3
:100370000197F1F700C000000895682F70E080E059
:1003800090E00E94690A20E030E044E353E40E94D8
:10039000C60920E030E04AEF54E40E94F50A20E06C
:1003A00030E849EF53E40E945A090E94380A7BBDA5
:1003B0006ABD0895CF93DF93EC0160E080E00E9476
:1003C0009C010E94B301CE010E948401DF91CF9174
:1003D0000895DC0140E007C0FB01E20FF31F5081EC
:1003E000951309C04F5F242F30E0FD01E20FF31F8A
:1003F00090819111F1CFFB01E20FF31F80819813DF
:1004000004C0992321F080E0089580E0089581E000
:100410000895EF92FF920F931F93CF93DF931F9254
:10042000CDB7DEB77C018B018FEF89830E94B301CA
:1004300060E080E00E949C0183EF91E00197F1F77A
:1004400000C00000C8010E94840160E081E00E94B9
:100450009C0110E019C0CE0101960E94B200898172
:1004600090ED980F9A3058F4F701E10FF11D808359
:1004700089810E9467011F5F8FEF898305C08D33DB
:1004800019F4111101C0198289818D3311F01031D5
:1004900010F3F701E10FF11D10820E94B30183EF09
:1004A00091E00197F1F700C000000F90DF91CF912C
:1004B0001F910F91FF90EF9008950E9491002FE7F8
:1004C0008AE196E0215080409040E1F700C00000B2
:1004D0000E94A70008950E949C002FE78AE196E001
:1004E000215080409040E1F700C000000E94A7002A
:1004F000089584EB0E94BD012FE58AEE90E0215023
:1005000080409040E1F700C00000089580E00E9424
:10051000BD012FE58AEE90E0215080409040E1F748
:1005200000C000000895CF93DF93CDB7DEB7659785
:100530000FB6F894DEBF0FBECDBF87EA91E60197F4
:10054000F1F700C000000E9427030E9446010E94AC
:1005500012070E940E0785E0E4ECF0E0DE01119640
:1005600001900D928A95E1F768E770E0CE0106965A
:100570000E940902BE016F5F7F4FCE0106960E9466
:10058000E901882311F187E890E00E94DA010E94D6
:1005900079020E945D0282E990E00E94DA019FE701
:1005A00024E88EE1915020408040E1F700C0000037
:1005B0008EE990E00E94DA010E946B020E9486029E
:1005C00089EA90E00E94DA0104C085EB90E00E9485
:1005D000DA019FE72AE186E0915020408040E1F770
:1005E00000C00000C1CF1F920F920FB60F921124CE
:1005F0002F933F934F935F936F937F938F939F932B
:10060000AF93BF93EF93FF938091CA009091CB007B
:10061000892B61F01092CC0086B1877F86B984B1B6
:1006200095B1E091CA00F091CB000995FF91EF914F
:10063000BF91AF919F918F917F916F915F914F91FA
:100640003F912F910F900FBE0F901F9018958FEF35
:100650008ABB9FE097BB84BB81BB1BBA88BB15BA22
:1006600012BA0895442309F4E1C0413009F0BCC135
:10067000863009F43FC018F4853041F0B7C18730A7
:1006800009F46CC0883009F49DC0B0C1862F90E099
:10069000FC013997E830F10508F0AAC1E65DFF4F8B
:1006A0000C94620B8BB381608BBB81E008958BB39C
:1006B00082608BBB81E008958BB384608BBB81E04B
:1006C00008958BB388608BBB81E008958BB3806104
:1006D0008BBB81E008958BB380628BBB81E0089572
:1006E0008BB380648BBB81E008958BB380688BBB38
:1006F00081E00895862F90E0FC013997E830F105FC
:1007000008F078C1EE5CFF4F0C94620B88B38160F7
:1007100088BB81E0089588B3826088BB81E008953A
:1007200088B3846088BB81E0089588B3886088BB03
:1007300081E0089588B3806188BB81E0089588B323
:10074000806288BB81E0089588B3806488BB81E0C3
:10075000089588B3806888BB81E00895862F90E073
:10076000FC013997E830F10508F046C1E65CFF4F1F
:100770000C94620B85B3816085BB81E0089585B3DD
:10078000826085BB81E0089585B3846085BB81E08C
:10079000089585B3886085BB81E0089585B3806145
:1007A00085BB81E0089585B3806285BB81E00895B3
:1007B00085B3806485BB81E0089585B3806885BB7F
:1007C00081E00895862F90E0FC013997E830F1052B
:1007D00008F014C1EE5BFF4F0C94620B82B3816092
:1007E00082BB81E0089582B3826082BB81E008957C
:1007F00082B3846082BB81E0089582B3886082BB4B
:1008000081E0089582B3806182BB81E0089582B364
:10081000806282BB81E0089582B3806482BB81E004
:10082000089582B3806882BB81E00895863009F420
:100830003FC018F4853041F0E3C0873009F46CC044
:10084000883009F49DC0DCC0862F90E0FC01399708
:10085000E830F10508F0D6C0E65BFF4F0C94620B60
:100860008BB38E7F8BBB81E008958BB38D7F8BBB69
:1008700081E008958BB38B7F8BBB81E008958BB3B0
:10088000877F8BBB81E008958BB38F7E8BBB81E02C
:1008900008958BB38F7D8BBB81E008958BB38F7BE5
:1008A0008BBB81E008958BB38F778BBB81E008957C
:1008B000862F90E0FC013997E830F10508F0A4C0DC
:1008C000EE5AFF4F0C94620B88B38E7F88BB81E099
:1008D000089588B38D7F88BB81E0089588B38B7FAE
:1008E00088BB81E0089588B3877F88BB81E0089545
:1008F00088B38F7E88BB81E0089588B38F7D88BBE5
:1009000081E0089588B38F7B88BB81E0089588B328
:100910008F7788BB81E00895862F90E0FC0139979E
:10092000E830F10508F072C0E65AFF4F0C94620BF4
:1009300085B38E7F85BB81E0089585B38D7F85BBB0
:1009400081E0089585B38B7F85BB81E0089585B3F1
:10095000877F85BB81E0089585B38F7E85BB81E06D
:10096000089585B38F7D85BB81E0089585B38F7B26
:1009700085BB81E0089585B38F7785BB81E00895BD
:10098000862F90E0FC013997E830F10508F040C06F
:10099000EE59FF4F0C94620B82B38E7F82BB81E0D5
:1009A000089582B38D7F82BB81E0089582B38B7FEF
:1009B00082BB81E0089582B3877F82BB81E0089586
:1009C00082B38F7E82BB81E0089582B38F7D82BB2C
:1009D00081E0089582B38F7B82BB81E0089582B36A
:1009E0008F7782BB81E0089580E0089580E00895CC
:1009F00080E0089580E0089580E0089580E0089503
:100A000080E0089580E0089580E0089580E00895F2
:100A100080E008950F931F934115510509F454C1C7
:100A2000062F10E0F8013997E830F10508F04EC1C3
:100A3000E659FF4F0C94620B863079F018F485303C
:100A400031F046C1873079F0883099F041C189B3DF
:100A50008170FA01808381E04AC186B38170FA0116
:100A6000808381E044C183B38170FA01808381E097
:100A70003EC180B38170FA01808381E038C1863045
:100A800081F018F4853031F025C1873089F0883045
:100A9000B1F020C189B386958170FA01808381E02D
:100AA00026C186B386958170FA01808381E01FC1DB
:100AB00083B386958170FA01808381E018C180B389
:100AC00086958170FA01808381E011C1863089F0BA
:100AD00018F4853031F000C1873099F08830C9F0C2
:100AE000FBC089B382FB882780F9FA01808381E00B
:100AF000FEC086B382FB882780F9FA01808381E0FB
:100B0000F6C083B382FB882780F9FA01808381E0F5
:100B1000EEC080B382FB882780F9FA01808381E0F0
:100B2000E6C0863089F018F4853031F0D7C08730C0
:100B300099F08830C9F0D2C089B383FB882780F947
:100B4000FA01808381E0D3C086B383FB882780F9D4
:100B5000FA01808381E0CBC083B383FB882780F9CF
:100B6000FA01808381E0C3C080B383FB882780F9CA
:100B7000FA01808381E0BBC0863081F018F48530B3
:100B800031F0AEC0873089F08830B1F0A9C089B3A8
:100B900082958170FA01808381E0A9C086B3829535
:100BA0008170FA01808381E0A2C083B38295817055
:100BB000FA01808381E09BC080B382958170FA0145
:100BC000808381E094C0863089F018F4853031F05C
:100BD00089C0873099F08830C9F084C089B385FB1B
:100BE000882780F9FA01808381E081C086B385FB84
:100BF000882780F9FA01808381E079C083B385FB7F
:100C0000882780F9FA01808381E071C080B385FB79
:100C1000882780F9FA01808381E069C0863089F0F5
:100C200018F4853031F060C0873099F08830C9F011
:100C30005BC089B386FB882780F9FA01808381E055
:100C400056C086B386FB882780F9FA01808381E04D
:100C50004EC083B386FB882780F9FA01808381E048
:100C600046C080B386FB882780F9FA01808381E043
:100C70003EC0863089F018F4853031F037C08730B7
:100C800099F08830C9F032C089B3881F8827881F3F
:100C9000FA01808381E02BC086B3881F8827881FD4
:100CA000FA01808381E023C083B3881F8827881FCF
:100CB000FA01808381E01BC080B3881F8827881FCA
:100CC000FA01808381E013C081E011C080E00FC091
:100CD00080E00DC080E00BC080E009C080E007C06C
:100CE00080E005C080E003C080E001C080E01F918B
:100CF0000F910895863061F018F4853031F011C0FD
:100D0000873049F0883051F00CC06BBB81E008950A
:100D100068BB81E0089565BB81E0089562BB81E016
:100D2000089580E008951F920F920FB60F9211243C
:100D30002F933F934F935F936F937F938F939F93E3
:100D4000AF93BF93EF93FF93E091CD00F091CE006E
:100D5000309709F00995FF91EF91BF91AF919F9165
:100D60008F917F916F915F914F913F912F910F9054
:100D70000FBE0F901F9018951F920F920FB60F92F3
:100D800011242F933F934F935F936F937F938F9390
:100D90009F93AF93BF93EF93FF93E091CF00F091B8
:100DA000D000309709F00995FF91EF91BF91AF9175
:100DB0009F918F917F916F915F914F913F912F9173
:100DC0000F900FBE0F901F9018951F920F920FB6A5
:100DD0000F9211242F933F934F935F936F937F93C1
:100DE0008F939F93AF93BF93EF93FF93E091D100C5
:100DF000F091D200309709F00995FF91EF91BF91E2
:100E0000AF919F918F917F916F915F914F913F91A2
:100E10002F910F900FBE0F901F9018958FB780687D
:100E20008FBF08958FB58E7F8FBD8FB582608FBDC8
:100E30008EB588608EBD8EB580618EBD8FB58F7B7F
:100E40008FBD8FB580688FBD8FE19EE497BD86BD55
:100E50008BED95E09BBD8ABD8EB581608EBD8EB554
:100E60008D7F8EBD8EB58B7F8EBD08951F920F92A4
:100E70000FB60F9211242F933F934F935F936F936D
:100E80007F938F939F93AF93BF93EF93FF93809143
:100E9000D3009091D40001969093D4008093D30016
:100EA000059769F487EC82BF1092D4001092D300AA
:100EB000E091D500F091D600309709F00995FF91A7
:100EC000EF91BF91AF919F918F917F916F915F91C2
:100ED0004F913F912F910F900FBE0F901F9018953B
:100EE0000F920FB6F8940F921F9211242F923F92F7
:100EF0004F925F926F927F928F929F92AF92BF922A
:100F0000CF92DF92EF92FF920F931F932F933F9315
:100F10004F935F936F937F938F939F93AF93BF9301
:100F2000CF93DF93EF93FF93A0910901B0910A0152
:100F30000DB60D920EB60D920E94EB0781110E9424
:100F40000509A0910901B0910A01CD91CDBFDD91B4
:100F5000DEBFFF91EF91DF91CF91BF91AF919F9154
:100F60008F917F916F915F914F913F912F911F9141
:100F70000F91FF90EF90DF90CF90BF90AF909F9038
:100F80008F907F906F905F904F903F902F901F9029
:100F90000F900FBE0F9008950E9470071895E09172
:100FA000E300F091E4008081811107C08FEF9FEF93
:100FB0009093D9008093D8000895E091E300F091D8
:100FC000E4000580F681E02D808191819093D90025
:100FD0008093D80008950F931F93CF93DF93809150
:100FE000D700811101C1C091DF00D091E0008E01D6
:100FF0000F5F1F4F1093E0000093DF0001151105F4
:10100000B9F48091E3009091E4002091E1003091E7
:10101000E2003093E4002093E3009093E200809399
:10102000E1008091DA008F5F8093DA000E94CF07A1
:101030008091D8009091D9000817190720F480E01A
:10104000B8C081E001C080E0E091E300F091E400ED
:101050009081911107C02FEF3FEF3093D90020937B
:10106000D800A7C0E091E300F091E4000580F6818C
:10107000E02D0680F781E02D2281338102171307CE
:1010800028F43093D9002093D80093C0A285B3856B
:101090002481358146815781E9015D834C83268116
:1010A000378144815581E9015B834A8311962D91F3
:1010B0003C911297AF014E5F5F4F2417350731F413
:1010C0002681378112963C932E93119713861286B0
:1010D0009C9191509C93A489B589109719F126850C
:1010E000378560897189E9017D836C832089318925
:1010F00066857785E9017B836A8311966D917C9182
:1011000012979F01245F3F4F6217730731F42089C4
:10111000318912963C932E931197158A148A9C91CB
:1011200091509C9326899091DE00921710F42093A1
:10113000DE0030E0D901AA0FBB1FAA0FBB1FAA0F08
:10114000BB1F2A0F3B1FD901AB51BF4F11960D900A
:10115000BC91A02DB583A48314962D913C91159735
:101160003783268314962D913C911597E9015B8373
:101170004A8315965C934E931497A689B0E09D011F
:10118000220F331F220F331F220F331FA20FB31F53
:10119000AB51BF4FB387A2879C919F5F9C932689D9
:1011A000E0910901F0910A019689921708F449CF5C
:1011B0004BCFE0910901F0910A01268930E0F90155
:1011C000EE0FFF1FEE0FFF1FEE0FFF1F2E0F3F1F33
:1011D000F901EB51FF4F9081923008F081E090913E
:1011E000DB0091110CC00CC08091DC009091DD00FF
:1011F00001969093DD008093DC0080E001C081E0E7
:10120000DF91CF911F910F9108958091D70088238E
:1012100021F081E08093DB0008951092DB002091A3
:10122000DE0001C02150822F90E0FC01EE0FFF1F75
:10123000EE0FFF1FEE0FFF1FE80FF91FEB51FF4FDF
:101240003081332379F3AC01440F551F440F551FF0
:10125000440F551F480F591FDF010180F281E02D17
:101260000280F381E02D1296FC93EE931197485182
:101270005F4FE417F50729F442815381FD01528342
:101280004183FC01EE0FFF1FEE0FFF1FEE0FFF1F4C
:101290008E0F9F1FFC01EB51FF4F0180F281E02D6B
:1012A0008681978190930A01809309012093DE0043
:1012B00008955058BB27AA270E9471090C94BB0AB5
:1012C0000E94AD0A38F00E94B40A20F039F49F3F22
:1012D00019F426F40C94AA0A0EF4E095E7FB0C949A
:1012E000A40AE92F0E94CC0A58F3BA1762077307C1
:1012F0008407950720F079F4A6F50C94EE0A0EF415
:10130000E0950B2EBA2FA02D0B01B90190010C0115
:10131000CA01A0011124FF27591B99F0593F50F42D
:10132000503E68F11A16F040A22F232F342F442785
:10133000585FF3CF469537952795A795F04053957D
:10134000C9F77EF41F16BA0B620B730B840BBAF04D
:101350009150A1F0FF0FBB1F661F771F881FC2F7B8
:101360000EC0BA0F621F731F841F48F487957795CC
:101370006795B795F7959E3F08F0B0CF9395880F86
:1013800008F09927EE0F9795879508950E94DA093E
:101390000C94BB0A0E94B40A58F00E94AD0A40F0B7
:1013A00029F45F3F29F00C94A40A51110C94EF0A20
:1013B0000C94AA0A0E94CC0A68F39923B1F355232E
:1013C00091F3951B550BBB27AA2762177307840758
:1013D00038F09F5F5F4F220F331F441FAA1FA9F3EE
:1013E00035D00E2E3AF0E0E832D091505040E695DC
:1013F000001CCAF72BD0FE2F29D0660F771F881F3D
:10140000BB1F261737074807AB07B0E809F0BB0B2F
:10141000802DBF01FF2793585F4F3AF09E3F510543
:1014200078F00C94A40A0C94EF0A5F3FE4F3983E22
:10143000D4F3869577956795B795F7959F5FC9F72C
:10144000880F911D9695879597F90895E1E0660FAD
:10145000771F881FBB1F621773078407BA0720F026
:10146000621B730B840BBA0BEE1F88F7E09508958F
:101470000E94D40A88F09F5798F0B92F9927B75146
:10148000B0F0E1F0660F771F881F991F1AF0BA9528
:10149000C9F714C0B13091F00E94EE0AB1E008958E
:1014A0000C94EE0A672F782F8827B85F39F0B93F80
:1014B000CCF3869577956795B395D9F73EF49095DB
:1014C0008095709561957F4F8F4F9F4F0895E89459
:1014D00009C097FB3EF490958095709561957F4F7C
:1014E0008F4F9F4F9923A9F0F92F96E9BB2793952A
:1014F000F695879577956795B795F111F8CFFAF43A
:10150000BB0F11F460FF1BC06F5F7F4F8F4F9F4F6A
:1015100016C0882311F096E911C0772321F09EE8C8
:10152000872F762F05C0662371F096E8862F70E02E
:1015300060E02AF09A95660F771F881FDAF7880F08
:101540009695879597F9089597F99F6780E870E0D9
:1015500060E008959FEF80EC089500240A94161629
:10156000170618060906089500240A941216130691
:10157000140605060895092E0394000C11F488231F
:1015800052F0BB0F40F4BF2B11F460FF04C06F5F3B
:101590007F4F8F4F9F4F089557FD9058440F551F11
:1015A00059F05F3F71F04795880F97FB991F61F0E5
:1015B0009F3F79F087950895121613061406551F5C
:1015C000F2CF4695F1DF08C0161617061806991FC8
:1015D000F1CF86957105610508940895E894BB27BD
:1015E00066277727CB0197F908950E94080B0C9482
:1015F000BB0A0E94AD0A38F00E94B40A20F095237D
:1016000011F00C94A40A0C94AA0A11240C94EF0A69
:101610000E94CC0A70F3959FC1F3950F50E0551FBF
:10162000629FF001729FBB27F00DB11D639FAA2737
:10163000F00DB11DAA1F649F6627B00DA11D661F86
:10164000829F2227B00DA11D621F739FB00DA11DA7
:10165000621F839FA00D611D221F749F3327A00D61
:10166000611D231F849F600D211D822F762F6A2FFD
:1016700011249F5750409AF0F1F088234AF0EE0F62
:10168000FF1FBB1F661F771F881F91505040A9F78F
:101690009E3F510580F00C94A40A0C94EF0A5F3F22
:1016A000E4F3983ED4F3869577956795B795F795CB
:1016B000E7959F5FC1F7FE2B880F911D9695879543
:1016C00097F90895EE0FFF1F0590F491E02D09940E
:0416D000F894FFCFBC
:1016D4000D0E0F10090A0B0C3738392F3435362A02
:1016E4003132332D63303D2B456E74657220506169
:1016F4007373776F7264006F70656E696E672E2EF8
:101704002E00646F6F72206F70656E656400636C89
:101714006F73696E672E2E2E00646F6F7220636C78
:101724006F73656400496E636F72726563742050F1
:0A173400617373003132333400009A
:00000001FF
